:020000040000FA
:0600000002010A022FC7F5
:03002B0002282385
:03003B0002284454
:030043000227CEC3
:0300530002303A3E
:03006B000227F475
:10008300022E33E5C754F84401F5C7790122000075
:100093000080FB120086B900030200F4E4792178A2
:1000A30008B800028004F709D8FCE479297802B87B
:1000B30000028004F709D8FCE49002817890790B60
:1000C3008002F0A3D8FCD9FA900D10AA82AB8390DA
:1000D300013A780C79048015E493A3AC82AD838A4A
:1000E300828B83F0A3AA82AB838C828D83D8E9D9D8
:1000F300E775828A758394740512011C7582917564
:100103008300740012011C75D00075813F7518813E
:10011300751902759F00020096C09FF59FE473D086
:100123009F22D083D082C09FE493C0E0740193C028
:10013300E0740293F59F2201FFFF0A486F70204984
:10014300507636000843726561746520636F6E6E86
:10015300656374696F6E000844656C65746520633C
:100163006F6E6E656374696F6E0008436C656172D0
:1001730020636F6E6E656374696F6E730002526500
:100183007475726E20436F6E6E656374696F6E7300
:10019300001857726974652F526563656976652027
:1001A30049507636205061636B65747300000A4FC3
:1001B3004D4120426F6F7473747261702053657286
:1001C300766572000230990100000A99023E990196
:1001D3000000130D0248990300008C02023C9901B0
:1001E3000000140D023E990100001D0D022099022A
:1001F30000009C02023C990100001E0D023E990181
:100203000000300D021E990200000000023C99011B
:100213000000310D023E99010000430D021C9902BA
:1002230000000000023C99010000440D023E9901C8
:100233000000560D021A990100000000023C9901CA
:100243000000570D023E990100006A0D0218990241
:1002530000000000022E99030000C002023C990135
:1002630000006B0D023E99010000870D02169903F1
:100273000000CC02023C99010000880DFF0400003D
:100283000A000100F4013200FFFF539901053F10FA
:100293000AFFFFFFFF484F5020556269717569746B
:1002A3006F757320532E4C2E00484F5020457874A1
:1002B300656E646564003332003934000100050063
:1002C300740E8813FA00F4015500FF00013075081D
:1002D300FFFF0600800CE803FF0000B400002800C5
:1002E3002800283075A000A000A000A0000008008E
:1002F30008E001F0001000100010001000100010C2
:100303000050005000500010001000D00700000003
:100313000000000F00010005003075070010000108
:100323000081FF00000000FF9B0EB90EA10EFF022B
:10033300020208025000A0000000E8030230990105
:100343000000F598023E99010000080F022499016C
:1003530000007F08023E99010000090F023699014F
:1003630000009508023E990100000A0F0238990126
:1003730000009708023E990100000B0F0242990802
:1003830000009808023E990100000C0F024C9901ED
:1003930000000D0FFF0100FF200230990100000D46
:1003A30099023E99010000710F0246990000000076
:1003B30000022E99030000E5084D144D144D144D11
:1003C300144D144D144D144D144D144D144D144D22
:1003D300144D14CF16E716C9160000204180961855
:1003E3004B0000803F010000006D4EC641393000D4
:1003F30000FFFFFF00000000803031323334353618
:1004030037383941424344454600286E756C6C20A9
:10041300706F696E7465722900303132333435364A
:10042300373839616263646566003F3F3F0000000F
:10043300807FF9021550B743BA5100E7DB2E000065
:10044300A04012012589AD03120125AAAD031201B3
:1004530025E2AD0312012543AE0312012580AE034D
:100463001201259CAE03120125E8B2031201256493
:10047300B3031201257F8C03120125948C0312010F
:10048300259B8C03120125A28C03120125AB8C033F
:10049300120125CE8C03120125598D031201259ECD
:1004A3008D03120125B78D03120125F58D0312016A
:1004B30025B29003120125359703120125439703B3
:1004C3001201254D9703120125C997031201253007
:1004D3009405120125FFF90412012511FA041201F2
:1004E300254DFA04120125BEFA04120125F9D2049E
:1004F30012012505D3041201256AD3041201255ED6
:10050300D504120125C4D504120125D0D504120146
:1005130025D9D504120125E2D504120125D3980467
:10052300120125DD98041201251B9904120125648B
:1005330099041201259E9904120125F899041201C8
:1005430025199A04120125229A041201256F9A048F
:10055300120125989A04120125A29A041201250E6C
:100563009B04120125A09B04120125EA9B0412019E
:1005730025209C04120125AC9C04120125ED9C044A
:10058300120125249D04120125369D0412012555CF
:100593009D041201255E9D04120125269E0412016D
:1005A30025B68905120125AD8A05120125C78A05DD
:1005B30012012580F404120125C4F404120125FA62
:1005C300F404120125C8F60412012522F7041201CE
:1005D300252BF704120125F3970512012509980528
:1005E300120125139805120125C4CE04120125D941
:1005F300CE041201258CCF04120125CCCF041201A5
:1006030025E5CF0412012520D0041201256DD00465
:100613001201259FD004120125E1D004120125EC1B
:10062300D2041201251E8F05120125468F051201E2
:1006330025758F051201258D8F05120125CF8F0595
:1006430012012560D903120125D9D9031201257896
:10065300DA03120125D5DA0312012563DB03120144
:100663002597DB03120125BDDB0312012535DC03CE
:1006730012012558DC0312012550DD03120125F177
:10068300DD0312012585E003120125DFE0031201DA
:1006930025EDE003120125549E04120125BE9E049C
:1006A3001201253AA204120125C36400120125EFA9
:1006B300640012012542650012012534660012010F
:1006C300259E670012012500690012012584690037
:1006D300120125D36900120125B970001201259C6E
:1006E3007700120125B577001201253B780012012E
:1006F30025967800120125D178001201258E790004
:10070300120125DD7900120125FB79001201257004
:100713007A00120125277B001201251A990512017F
:100723002552C802120125F3C902120125B1CA02DA
:100733001201251ACE021201254FCE021201250FF6
:10074300D0021201256CD002120125B5D00212018C
:100753002520D10212012591D102120125C3D10214
:10076300120125DBD10212012530D30212012566C5
:10077300D3021201251AD502120125A7D5021201AF
:1007830025F1D5021201256F9305120125809305EA
:100793001201252594051201258A9A051201253C8B
:1007A30096051201254C9605120125649605120142
:1007B30025CC96051201251A8E051201259F8E055B
:1007C300120125058F05120125AFFE04120125E351
:1007D300FE041201250CFF0412012583FF041201FC
:1007E300250F8D05120125368D051201258C8D05EA
:1007F300120125DC8D0512012504E20412012512E4
:10080300E2041201258CE20412012564E3041201BF
:10081300251FE504120125AB9205120125F6920569
:10082300120125519305120125C18605120125F5F3
:100833008605120125A48705120125D88705120113
:100843002525880512012545F704120125D5F7044E
:100853001201256EF804120125FFF8041201250880
:10086300F90412012586F9041201259CF9041201E9
:1008730025FCF904120125FCD6041201256AD704CC
:1008830012012501D904120125EAD9041201250018
:1008930080051201257E8005120125B6800512010F
:1008A300258781051201254CE90312012574E9030B
:1008B30012012599E903120125BEE903120125CA94
:1008C300E903120125DDE903120125E6E90312011B
:1008D300250FEA0312012518EA03120125ECEA03A6
:1008E30012012525EB0312012534EB031201252701
:1008F300EC0312012559EC0312012566EC031201E6
:10090300253FEE031201258AEF03120125B0F00300
:10091300120125B6F1041201257CFD0212012540C6
:10092300FF021201254DFF0212012574FF0212017D
:10093300259CC104120125F7C104120125E2C2045A
:1009430012012534C40412012539C4041201258976
:10095300C404120125C5C404120125DDBF0312011D
:10096300253DC40312012565C503120125A6C7034E
:1009730012012516C803120125C3DA0412012550FA
:10098300DC0412012550DD04120125A9DD04120146
:10099300252293041201252B9504120125D29604D6
:1009A300120125D79604120125D99604120125DBDD
:1009B3009604120125179704120125EFB2041201C0
:1009C300255FB30412012574B404120125B9B504DB
:1009D300120125BEB5041201252BB6041201252DE3
:1009E300B6041201252FB60412012568B6041201BC
:1009F30025DAA80412012550A90412012565AA04C9
:100A0300120125AAAB04120125AFAB041201251C68
:100A1300AC041201251EAC0412012520AC04120102
:100A23002559AC04120125E5AD0412012555AE0488
:100A33001201256AAF04120125AFB004120125B4D7
:100A4300B00412012521B10412012523B1041201BE
:100A53002525B1041201255EB1041201258AF8038C
:100A6300120125E4F90312012507FB03120125B541
:100A7300FC031201251FFD03120125E7FD031201EB
:100A83002537FE03120125B2FF03120125BFB6036A
:100A9300120125C7B703120125FAB803120125C5B0
:100AA300BB031201251CBC031201257EBC031201EA
:100AB300253ABD031201257DBD03120125C6BD03E1
:100AC300120125CBE30212012529E4021201259923
:100AD300E7021201252DE902120125BAE9021201EA
:100AE3002524EB0212012570EB02120125B5EB025E
:100AF300120125EFEC0212012561E10312012542E7
:100B0300E40312012561E50312012590E6031201B6
:100B1300251F8505120125718505120125FB850514
:100B23001201256286051201256AFC04120125942F
:100B3300FC0412012562FD041201253DFE0412018D
:100B4300251ED103120125E5D1031201251CD20371
:100B530012012546D203120125A6D203120125FC58
:100B6300D20312012561D303120125F9D303120124
:100B73002508D5031201259FD6031201252CD7037F
:100B830012012593D703120125AAD703120125C405
:100B9300D80312012502D903120125238704120168
:100BA30025778C0412012500800312012589830314
:100BB300120125E08303120125FF83031201257D22
:100BC3008403120125138603120125F886031201FB
:100BD30025068B03120125DC8B0312012516D60291
:100BE300120125F5D60212012550D80212012590D3
:100BF300DB02120125F5DB02120125D3DF0212010C
:100C0300258FE00212012563E10212012501E202B0
:100C130012012561E202120125EEE2021201250012
:100C23008002120125228002120125E680021201B0
:100C330025608202120125B5820212012513850265
:100C43001201252086021201253F88021201250286
:100C530089021201258E8A021201259A8C02120141
:100C630025038E02120125948E02120125358D046F
:100C73001201258E8F04120125C08F041201252F26
:100C83009004120125FB9004120125F2B70412010E
:100C930025C0B804120125E49105120125C0810580
:100CA300120125D78105120125088205120125436A
:100CB30082051201256D8205120125978205120115
:100CC30025AE8205120125C58205120125DC8205A8
:100CD3001201250583051201251883051201252E0E
:100CE300830512012541830512012568830512013D
:100CF300254FA30312012553A4031201258BA4033B
:100D0300120125AEA403120125B9A403120125DCA7
:100D1300A403120125EBA503120125C0A6031201AA
:100D2300253BA703120125C3A703120125FEA70331
:100D330012012535A803120125C3A8031201259C1E
:100D4300A903120125FCA90312012507AA03120115
:100D53002586AA0312012589AA031201258CAA0359
:100D63001201251BAB031201251EAB031201254EF5
:100D7300AB0312012578AB0312012566AC03120104
:100D83002518AD03120125DFBC0412012507BD049C
:100D930012012535BD041201256CBD04120125CABB
:100DA300BD0412012515BE0412012560BE04120103
:100DB30025A0BE04120125E6BE0412012514BF04BA
:100DC300120125D1BF04120125DBBF04120125E85E
:100DD300BF041201251BC004120125E7C004120140
:100DE30025F3C0041201250BC10412012515C1040A
:100DF3001201250891051201251691051201252ED0
:100E03009105120125469105120125F28E02120168
:100E1300259E8F021201251990021201253A910293
:100E23001201257691021201251F92021201250655
:100E330093021201256A9402120125C19402120140
:100E4300254295021201253296021201257F960250
:100E53001201250597021201253797021201254B2E
:100E630099021201258D9902120125AB99021201F3
:100E7300252E9A02120125029B02120125CA9B020A
:100E8300120125008004120125D380041201257C60
:100E93008104120125CF81041201257F82041201EE
:100EA300250B8304120125F78304120125268404EC
:100EB3001201253985041201258185041201255665
:100EC3008604120125928604120125AE86041201BE
:100ED300256F97051201256BDE0412012581DE04BF
:100EE300120125A7DE04120125C3DF04120125CD5B
:100EF300DF0412012502E104120125FAE1041201C3
:100F030025B3A304120125E3A40412012516A504A5
:100F130012012560A50412012527A7041201253219
:100F2300D3011201259CD301120125FBD401120127
:100F3300250BD50112012538D5011201258FD501C5
:100F430012012538D6011201253FD70112012509C7
:100F5300D80112012569D901120125ACD901120169
:100F63002551DA011201259EDA01120125C4DA01A5
:100F7300120125D2DC01120125D7DC01120125DC87
:100F8300DE0112012529DF011201259CDF01120177
:100F930025CFDF0112012571E0011201251AE101BC
:100FA30012012552E10112012555E1011201259D8E
:100FB300E101120125DDE10112012534E2011201F3
:100FC30025E3EE04120125FBEE0412012543EF0491
:100FD30012012559EF04120125A0EF04120125B4D3
:100FE300F00412012541F1041201258CF1041201D0
:100FF30025583400120125933400120125D83400FA
:101003001201259835001201251E36001201254ACA
:101013003600120125833600120125C13800120162
:1010230025A53A001201258B3C00120125CE3D0077
:101033001201251C40001201252E410012012579C1
:101043004200120125894300120125A64300120123
:1010530025E14300120125034400120125664400E3
:10106300120125274900120125BC49001201250D53
:101073004A00120125344A00120125864A00120152
:1010830025A44A00120125FE4A00120125FD4B004A
:10109300120125814C001201256C7B00120125767B
:1010A3007B00120125B97B00120125D47B001201BC
:1010B30025647C001201258C7C00120125C97C006B
:1010C300120125007D00120125297D001201259EB4
:1010D3007D00120125B37D00120125C87D00120198
:1010E30025F97D001201250D7E00120125327E00B7
:1010F3001201256C7E00120125987E001201251B2A
:101103007F00120125647F001201258E7F001201EA
:1011130025B97F00120125F68B05120125A9F002DE
:10112300120125D7F00212012525F202120125052D
:10113300F30212012524F302120125A1F302120185
:1011430025E4F3021201253AF502120125FBF5020B
:1011530012012582F80212012523F9021201251931
:10116300FA0212012516FB0212012570FC0212017C
:1011730025FBFC021201255B8805120125C48805A5
:101183001201251889051201253F890512012570D1
:1011930089051201250AC60412012577C604120126
:1011A30025BEC604120125D6C704120125D2C804E0
:1011B300120125B5C904120125B5C803120125F78B
:1011C300C803120125C9C903120125A2CA031201CA
:1011D300259CCB031201257ECC03120125E7CC030A
:1011E3001201259DCD0312012511CE031201257D88
:1011F300CE03120125A6CE0312012520CF0312012F
:1012030025B9CF031201251ED00312012533D003C4
:1012130012012579D00312012592D003120125F77B
:10122300D003120125FAD003120125EAEB041201BF
:101233002512EC0412012550EC041201250EED04D5
:1012430012012575ED0412012591ED04120125B952
:10125300ED04120125E9ED04120125F8ED04120154
:101263002575EE041201259BEE0412012521E301ED
:10127300120125FFE40112012531E7011201256D59
:10128300E7011201259AE70112012584E801120101
:1012930025CFE8011201251AE9011201252CE901E4
:1012A3001201256CE901120125A1E901120125EFC3
:1012B300E9011201251EEA0112012541EA01120189
:1012C300258EEA0112012513EB011201252DED01F3
:1012D3001201256CEF01120125ADEF011201254F1B
:1012E300F10112012590F10112012503F20112010E
:1012F3002559F20112012557F301120125F0F901D5
:1013030012012511FC01120125DCFD011201254406
:10131300FF01120125E84C00120125974D0012012F
:1013230025DD4D001201251D4F00120125B350008C
:101333001201252D5100120125485100120125C328
:1013430051001201251D53001201257D5400120185
:1013530025835500120125E45600120125FD560090
:101363001201255B57001201254958001201257C03
:101373005800120125EC580012012566590012018C
:1013830025B059001201257A5A001201254F5B003E
:101393001201252E5C00120125B95C0012012527DC
:1013A3005D001201259B5D00120125C65D0012013F
:1013B30025855E00120125EA5F0012012507600002
:1013C3001201252660001201251761001201253C38
:1013D3006100120125666100120125E1610012011D
:1013E300253B6200120125A463001201255264000B
:1013F3001201259364001201257EBA02120125CC45
:10140300BA02120125D8BA02120125B6BB02120193
:1014130025E7BB0212012518BC0212012598BC0264
:10142300120125D0BC0212012522BD021201255F43
:10143300BD021201257CBF02120125A2C1021201C5
:10144300258DC30212012577C502120125F9FF017B
:1014530012012563AE0112012593AE011201256C21
:10146300B501120125F1B601120125EEBC011201ED
:1014730025D6BD0112012513BE0112012536BE0179
:1014830012012567BE0112012570BE011201257AE2
:10149300BE0112012568BF011201255EC0011201C0
:1014A30025549901120125539D01120125599D01CE
:1014B30012012594A401120125ADA901120125648D
:1014C300E5041201255EE604120125D2E6041201A9
:1014D3002510E70412012584E704120125FDE70422
:1014E30012012506E80412012512E804120125273A
:1014F300E80412012565E8041201257BE8041201C2
:101503002577CA0412012584CA041201259ECA0440
:10151300120125DDCA041201251BCB04120125800B
:10152300CB0412012595CB04120125A0CB04120193
:1015330025ADCB04120125C4CB04120125D2CB0463
:10154300120125DDCB04120125E9CB04120125F894
:10155300CB0412012503CC0412012526CC0412016D
:1015630025CDCC04120125DDCC04120125F7CC04D2
:1015730012012514CD0412012530CD041201255585
:10158300CD0412012560CD0412012575CD0412018D
:101593002589CD04120125EACD04120125F0CD04DD
:1015A300120125F6CD04120125FCCD0412012514E8
:1015B300CE0412012547CE0412012554AC021201B8
:1015C30025D8AC0212012587AD02120125E6AE0231
:1015D30012012507B102120125F3B10212012528D8
:1015E300B2021201254AB202120125F9B202120116
:1015F30025F1B4021201251AB502120125ACB50278
:10160300120125DEB502120125EBB50212012542B6
:10161300B60212012568B602120125D5B8021201DD
:1016230025D8B90212012530BA02120125E39D0221
:10163300120125ED9E02120125D49F02120125DE1F
:101643009F0212012500A0021201250CA002120123
:1016530025A5A102120125D4A102120125F0A2029F
:1016630012012549A302120125AFA4021201258EFE
:10167300A502120125EAA50212012557A6021201AD
:101683002592A602120125D1A6021201258AA902DA
:10169300120125A4A90212012530AA021201253E36
:1016A300AA0212012597AA02120125A5AA02120174
:1016B3002518AB021201257CAB02120125C6AB0231
:1016C300120125219803120125439803120125696C
:1016D3009A031201257E9D03120125969E03120192
:1016E30025499F031201252BA0031201257A8305A7
:1016F3001201259F8305120125118405120125106E
:10170300F10312012519F10312012522F10312013C
:1017130025F9F103120125AAF303120125E0F303CE
:101723001201251AF40312012550F4031201258A2C
:10173300F403120125BEF403120125EAF403120196
:101743002533F5031201256DF503120125B6F503C3
:101753001201250EF60312012543F6031201259EFD
:10176300F603120125D8F60312012529F703120106
:10177300255FF70312012599F703120125C7F70324
:10178300120125EAF703120125F194051201251D23
:1017930095051201257895051201258295051201FB
:1017A300259295051201256EFF01120125D88A05A0
:1017B300120125B79905120125D69605120125FDBB
:1017C30099051201257099051201259C95051201B1
:1017D30025C69505120125729A05120125519A0510
:1017E300120125299A05120125E17F001201255DC9
:1017F3009805120125C29805120125ABE8041201D0
:10180300251A900512012576C20112012599C701F7
:10181300E066701008A3E066700A08A3E06670042F
:1018230008A3E06622C3E09608A3E09608A3E09627
:1018330008A3E096A2D265D03322C008C3E096F590
:101843000808A3E096420808A3E096420808A3E02C
:10185300964208A2D265D033E5087001D3D008229E
:10186300C3E7960809E7960809E7960809E7962269
:10187300C3E09608A3E09608A3E09608A3E09622A7
:10188300C008C3E096F50808A3E096420808A3E061
:1018930096420808A3E09645087001D3D0082208B1
:1018A3000808E630E71112216B1218BA080808C6B7
:1018B3004480C618181822181818E9799EC608CA51
:1018C300C608CBC608CCC6C370207996CACBCC70E9
:1018D30019798ECBCC70137986CC700EF9802ACA15
:1018E30033CACB33CBCC33CC331930E7F2CCCBCAAE
:1018F3003350147004EA30E00DE4CA3ACACB3BCB50
:10190300CC3CCC500209C3E913C6CC182313C6CB75
:1019130018C6CA18C6F9228A088B098C0A8D0B7857
:101923000812196420F01430E72B74FFFCFBFA74DF
:101933007F8022E4FCFBFA7480801AB48008BC0028
:10194300F2BB00EF800F50EBF9E4C39AFAE49BFB80
:10195300E49CFCE499C6CC18C6CB18C6CA18C6F9D1
:1019630022E4C9C608CAC608CBC6D3330308CCC60B
:101973003392F0C3947F402E94184019C9B90704D9
:10198300CACBCC225025C309CA33CACB33CBCC3301
:10199300CC33D9F422F4600DC9CCC313CB13CBCA17
:1019A30013CAD9F6CC22E4FCFBFA2214FCFBFA227C
:1019B300E6C33318461846184622E7C333194719B6
:1019C30047194722181818E6084608700AE608C39C
:1019D300337005E633F4220822191919E709470978
:1019E300700AE709C3337005E733F4220922E608D6
:1019F3004608C3134608336002E633F422E7094777
:101A030009C3134709336002E733F4221219F16063
:101A130025121A0060201219B370030219BD0808B9
:101A230008E76670101819E766700A1819E76670F8
:101A3300041819E76622F4221219F1601C121A0025
:101A430060171219B370071219BD7001D322C0D0E9
:101A53001219BD7006D0D0B322C32233D0D0501494
:101A630030E0F6C3E7960809E7960809E796080900
:101A7300E796B32220E0D5E6970809E6970809E63A
:101A8300970809E697B3221219F1601B121A006036
:101A9300161219B370071219BD600CB322C0D0120D
:101AA30019BD7005D0D022C32233D0D0501330E0FB
:101AB300EBC3E7960809E7960809E7960809E7964E
:101AC3002220E0E4E6970809E6970809E697080963
:101AD300E69722001219F1604F121A006012E754C0
:101AE3008066F61219C770111219BD703B090909F6
:101AF300F4F618F618F618F6221219DC70151219F6
:101B0300B308080860EAE6447FF618768018E4F61E
:101B130018F6221219B360161219BD7012E4F608F2
:101B2300F608F608E65480F609090918181822EA97
:101B3300C0E0EBC0E0ECC0E0EDC0E0E687F0A4FB62
:101B4300ACF008E687F0A42CFCE435F0FA1809E6BB
:101B530087F0A42C4B60027401CA35F0FCE433FB1C
:101B630009E687F0D2F7A42CCB35F0FC1908E687F9
:101B7300F0A42BCC35F0FBE433FD0819E687F0D253
:101B8300E7A42C4ACB35F0CD3400FC09E687F0D22C
:101B9300E7A42DCC35F0FDE433FA0918E687F0D23B
:101BA300F7A42CCD35F0CA3400FC08E687F0D2E761
:101BB300D2F7A42ACC35F07A7E20E70B0ACB33CBBD
:101BC300CD33CDCC33CC33CB3350147004ED30E074
:101BD3000ED2F1E4CD3DCDCC3CCC3B5005DA05C271
:101BE300F1EB547FC63308E63392F0FBE73309E7A2
:101BF30033C39A502D2B70190C0D4C4D70151806CC
:101C0300E608C333700D20F10AA2F013F6E418803E
:101C13000B4024E4F630F002768018F618F618F636
:101C23008024D33B14501074FFA2F013F61876806F
:101C3300E418F618F6800FA2F013F618E63303F64D
:101C430018ECF618EDF6D0E0FDD0E0FCD0E0FBD0C8
:101C5300E0FA22121A0060461219F1603DE9687039
:101C630008F618F618F618F622748067F7121C8A1D
:101C7300090909748067F7221219F1601D121A000D
:101C83007005191919801A1219C7701F1219DCC3AC
:101C93007003E66733191919400718181822080842
:101CA3000874FFF618F618F618F6221219DC6017F6
:101CB3001219BD702192F01219B37019501720F048
:101CC30014080808090909E7F61819E7F61819E7C7
:101CD300F61819E7F6221219B360E6E869701F08CF
:101CE30008E62480F608E436F618547FB47F0CE641
:101CF30054806007F6E418F618F622181822E9C68D
:101D0300CC08C6CD08C6CE08C6CFC0E0E8C0E0EA1E
:101D1300C0E0EBC0E009E9F809E7FA09E7FBE6F9F7
:101D230018E6F8C3EC98ED99EE9AEBC2E7F5F0EFFD
:101D3300C2E795F0500E600CEBCFFBEACEFAE9CD8B
:101D4300F9E8CCF8EAA2E7D2E7FAEB33FB13F5F0B4
:101D5300EEA2E7D2E7FEEF33FFC5F013A2E730E6CA
:101D630001B313C5F0C3C0E0C0F07F00C39BFB60A9
:101D73005E9418600F401D14601AD0E023F9D0E080
:101D8300F8021E5C8AF0E9486003D2F0E4AFF0FA8F
:101D9300F9F8803BEB30E40D89F0EA6003D2F0E41C
:101DA300AFF0F9CAF8EB30E30D88F0EF6002D2F040
:101DB300AFF0E4CAC9F8EB54076014FBC3EA13FAA3
:101DC300E913F9E813F8EF135002D2E0FFDBEDD08B
:101DD300E0C0E030E739C3E49FFFF5F0EC98FC4244
:101DE300F0ED99FD42F0EE9AFE42F0D0E0F9D0E03A
:101DF300F8E5F0607AE923F9EE20E742D80280673C
:101E0300C3EF33FFEC33FCED33FDEE33FE80EAEC3E
:101E130028FCED39FDEE3AFED0E023F9D0E0F8409E
:101E230002801BC3EE13FEED13FDEC13FCEF135006
:101E330002D2E0FF08B800067F7F74FF802EEF33E5
:101E430050178CF020F00260100CBC000C0DBD008C
:101E5300080EBE000408E860DFE933E813FFEE2351
:101E630013FE4F4D4C8008E95480FFE4FEFDFCEE69
:101E730033EF33F47004FCFD7E80D0E0FBD0E0FA56
:101E8300D0E0F8D0E0CFC618CEC618CDC618CCC661
:101E9300F9221219F1700418181822121A00700D81
:101EA30074FFF61819F61819F61819F622E7548074
:101EB30066F61219B3700F1219BD70F014F608F616
:101EC30008F608F680D11219BD700CF608F60876EC
:101ED3008008E6447F80EC1219DF700C1219CA6087
:101EE300BFE65480F6E480BB1219CA7005191919AC
:101EF30080A5E869700C763F18768018F618F6E826
:101F0300F922E6CDC0E018ECC0E0E633CD33CDD303
:101F130013F6E719FCE7191933CC33C3947F400E4A
:101F2300CD9D502408E65480F6E418F6800FF4049F
:101F33003D14501408E6447FF6187680E418F6182A
:101F4300F6D0E0FCD0E0FD22CCD313CCFD18E4C6E0
:101F5300CBC0E018E4C6CAC0E00808ED08C633E603
:101F630013F618E433C675F003C3CA97CA09CB97AF
:101F7300CB199C40047D08802EBD000302203E1631
:101F8300B6FF050606081618C3CA33CACB33CB33CC
:101F9300CA27CA09CB37CB193CC37D08803E187DBD
:101FA3000820E75CC633C6CA33CACB33CB33DDF173
:101FB300D5F0EB30E77BCA97CA09CB974ACB199C7C
:101FC300406F4B7025E620E0218066187D08C3CA68
:101FD30097CA09CB97CB199CD3C633C6CA33CACB8E
:101FE30033CB3350C9DDE7D5F0E1D3E4C636C608B9
:101FF300C636C608C636C608C636C618181880318F
:10200300C3CA97CA09CB97CB199CB34097C633C6AB
:10201300CA33CACB33CB33DD34D5F02EC6A2E0C6E8
:1020230040C8CA27CA09CB37194A70BECB3CB48013
:10203300B90808E63308E633601F181818D0E0FA29
:10204300D0E0FBD0E0FCD0E0FD22187D08CA27CA0F
:1020530009CB37CB193CD3808013F618E4B67F1134
:10206300F618B6FF0EF618C60470D20808768080FC
:10207300CAF618F618F680C5080808EAC0E0EBC0EF
:10208300E086F0E7A4FA180986F0E7A42AFA18090B
:1020930086F0E7A42AFA180986F0E7A42AFA198633
:1020A300F0E7A4FBE5F02AFA190886F0E7A42BFB76
:1020B300E5F03AFA190886F0E7A42BFBE5F03AFAC3
:1020C30018180986F0E7A4C5F02BFBE43AFA1908BF
:1020D300E7C5F0C6A426F6E5F03BFBE43AFA18861A
:1020E300F0E7A4F6E5F00826F6E43B08F6E43A0840
:1020F300F6D0E0FBD0E0FA22E4CFC0E0E4CEC0E0CB
:10210300E4CDC0E0E4CCC0E075F020C3E633F608CC
:10211300E633F608E633F608E633F6181818EC3318
:10212300FCED33FDEE33FEEF33FFC3EC9709ED9780
:1021330009EE9709EF97191919400FFFEC97FC095E
:10214300ED97FD09EE97FE191906D5F0BEECF709D8
:10215300EDF709EEF709EFF7191919D0E0FCD0E014
:10216300FDD0E0FED0E0FF22181818E4C396F6086D
:10217300E496F608E496F608E496F6226016080854
:1021830008C6C313C618C613C618C613C618C61383
:10219300C6D5E0EA22700908080822601618181844
:1021A300C6C333C608C633C608C633C608C633C655
:1021B300D5E0EA22E627F60809E637F60809E63706
:1021C300F60809E637F622E026F608A3E036F60815
:1021D300A3E036F608A3E036F622E026F008A3E0F3
:1021E30036F008A3E036F008A3E036F022C3E69702
:1021F300F60809E697F60809E697F60809E697F65A
:1022030022C3E0C696F608A3E0C696F608A3E0C686
:1022130096F608A3E0C696F622C3E096F008A3E07C
:1022230096F008A3E096F008A3E096F022E657F6AE
:102233000809E657F60809E657F60809E657F622AD
:10224300E056F608A3E056F608A3E056F608A3E026
:1022530056F622E056F008A3E056F008A3E056F045
:1022630008A3E056F022E647F60809E647F6080910
:10227300E647F60809E647F622E046F608A3E046F5
:10228300F608A3E046F608A3E046F622E0F608A324
:10229300E0F608A3E0F608A3E0F622E6F008A3E6DA
:1022A300F008A3E6F008A3E6F022E0FAA3E0FBA31C
:1022B300E0FCA3E0FD22EAF0A3EBF0A3ECF0A3ED36
:1022C300F022CAC0E0E6F0A308DAFAD0E0FA22CAA4
:1022D300C0E0E0A3C582CCC582C583CDC583F0A38E
:1022E300C582CCC582C583CDC583DAE6D0E0CA22D8
:1022F300C3E498F8E499F91223348026C3E49AFAE4
:10230300E49BFBE920E7E9122334E498F8E499F924
:1023130022C3E498F8E499F9122334E498F8E49991
:10232300F9C3E49AFAE49BFB22EB20E7CFE920E729
:10233300E0B90010BB0008E88AF084F8AAF022E4B0
:10234300FBC8FA22EB70227B10C833C8C933C933E8
:102353005007C39AC3DBF280069A50012ADBEAC80E
:1023630033F4C8C933F4C9FA2275F008E4C833C892
:10237300C933C933C99AC99B5004C92AC93BD5F08B
:10238300ECFBC833F4C8E4C9FA22600D08C6A2E71F
:1023930013C618C613C6D5E0F322600C08C6C313D0
:1023A300C618C613C6D5E0F422700422600D18C601
:1023B300C333C608C633C6D5E0F41822251810AFB8
:1023C30008F518400215198008F51840021519D2AE
:1023D300AF22C0D0251810AF08F518500205198098
:1023E30008F51850020519D2AFD0D0222518F5826E
:1023F30010AF08F518400215198008F518400215AA
:1024030019D2AF851983222518F582E43519F5838E
:1024130022E4732518C582C0E0E51934FFC583C0E3
:10242300E0E518C3958224F810AF088583198582E7
:10243300188008858319858218D2AFCEF0A3E520D2
:10244300F0A37808E608F0A3DEFAEFF0A3E5812411
:10245300FAF8E608F0A3E608F0A3E608F0A30808F4
:10246300E608F0A3E608F0A315811581D0E0FED0BD
:10247300E0F8158115811581E8C0E0EEC0E0222562
:1024830018C582C0E0E51934FFC583C0E0E518C371
:10249300958224F910AF08858319858218800885F1
:1024A3008319858218D2AFCEF0A3E520F0A3780874
:1024B300E608F0A3DEFAEFF0A3E58124FBF8E608D3
:1024C300F0A3E608F0A30808E608F0A3E608F0A3E3
:1024D30015811581D0E0FED0E0F815811581E8C0A3
:1024E300E0EEC0E022851983851882E0A3FEE0A315
:1024F300F5207808E0A3F608DFFAE0A3FFE0A3C025
:10250300E0E0A3C0E0E0A3C0E0E0A3C0E0E0A3C03C
:10251300E010AF08858218858319800885821885A5
:102523008319D2AFD083D082020122851983851803
:1025330082E0A3FEE0A3F5207808E0A3F608DFFA23
:10254300E0A3FFE0A3C0E0E0A3C0E0E0A3C0E0E0BD
:10255300A3C0E010AF08858218858319800885829F
:1025630018858319D2AFD083D08222C0D02518C555
:1025730082C0E0E51934FFC583C0E0E518C3958246
:1025830024F310AF08858319858218800885831981
:10259300858218D2AFC8F0A3E9F0A3EAF0A3EBF069
:1025A300A37908E709F0A3D8FAECF0A3EDF0A3EEC2
:1025B300F0A3EFF0A3D0E0F0A3D0E0F0A3D0E0F0DD
:1025C300A3E520F0A3E5F0F0A32285198385188203
:1025D300E0C0E0A3E0F9A3E0FAA3E0FBA37808E0FE
:1025E300F608A3DFFAE0FCA3E0FDA3E0FEA3E0FF0F
:1025F300A3E0C0E0A3E0C0E0A3E0F5D0A3E0F520B2
:10260300A3E0A3F5F010AF0885831985821880082D
:10261300858319858218D2AFD082D083D0E0F8D0D9
:10262300E03274048006740280027401C0E0F40492
:102633001223EFD0E01222C52274048004740280B6
:1026430000CCC0E0EDC0E0E518C39CCCAD1950014F
:102653001D10AF068C188D1980068C188D19D2AFFA
:102663001222D2D0E0FDD0E0FC22D083D082E9C098
:10267300E0E493A3C386F0C5F095F0F908E493A3CF
:1026830086F0C5F095F0700BE493A3C3994005E978
:10269300048002A3E475F002A42582F582E5F035F7
:1026A30083F583D0E0F9E493A3C0E0E493C0E02290
:1026B300D083D082CCC0E0E493A360061226DD145D
:1026C30070FAE493A360061226FC1470FAD0E0FCBF
:1026D300E493A3C0E0E493C0E022C0E0E493A3D377
:1026E3009C5010E493A3C39C400AD0E0D0E0D0E018
:1026F3000226D0A3A3A3D0E022C0E0E493A36C708E
:1027030009D0E0D0E0D0E00226D0A3A3D0E022D0CD
:1027130083D082ECC0E0EDC0E0E493A3FCE493A398
:10272300FDED4C600D12275EEC24FFFCED34FFFD44
:1027330080EFE493A3FCE493A3FDED4C600D12271B
:102743009DEC24FFFCED34FFFD80EFD0E0FDD0E0F5
:10275300FCE493A3C0E0E493C0E022C0E0C3E493AD
:1027630096087401939618400FE4936670080874F2
:102773000193661870007019A3A3C3E493960874B9
:1027830001939618A3A3400DD0E0D0E0D0E0022738
:102793004EA3A3A3A3A3A3D0E022C0E0C0F088F07C
:1027A300E4936670080874019366187000A8F0A398
:1027B300A3700BD0F0D0E0D0E0D0E002274EA3A36B
:1027C300D0F0D0E022C2AF02000022C0E074F212C7
:1027D300256EA2AFE433FED2AFC2C0E5D1A2E4506E
:1027E3000653D1EF120871EEA2E092AF7F010225EA
:1027F300CDC0E074F212256EA2AFE433FED2AFE592
:1028030089A2E04006E589A2E150031207F3758926
:1028130000758900C2C5EEA2E092AF7F010225CD0B
:10282300C0E0C0D0E8C0E0E9C0E0E5A8D2AFC2C7CD
:10283300A2E7A2E792AFD0E0F9D0E0F8D0D0D0E0A1
:1028430032C0E0C0D0E8C0E0E9C0E0C008C009C0C1
:1028530082C083A2AFE433F9D2AF9005F6E0F8A3C8
:10286300E0687008539AFBA374018026C2E99005BF
:10287300F6E0F50874012508F074762508F58274EE
:10288300053400F583E0F5C19005F6E0C39480407C
:1028930002E4F0E9A2E092AFD083D082D009D0085D
:1028A300D0E0F9D0E0F8D0D0D0E03274F512248231
:1028B300EAFEEBFFEE2434F8EF3400F988088909C7
:1028C300EE2435F582EF3400F583E0F8EE2437F596
:1028D30082EF3400F583E0F50AEC850AF0A4FCAA44
:1028E300F0850AF0EDA42AFDE82CF8E43DF97A25F9
:1028F3007B00122334EA850882850983F0F8740784
:1029030058F97401B900028004C333D9FCFAE813FF
:102913001313541FF8EE28F8EF3400F9E8245DF59B
:1029230082E93400F583E05A6008EE2434F582EF3F
:10293300802CEE2434F582EF3400F583E0C0E0EE22
:102943002436F582EF3400F583E0F5F0D0E084A877
:10295300F0EE28F8EF3400F9E82438F582E9340082
:10296300F583E0F97F0402252E74F5122482EAFE32
:10297300EBFFEE2434F582EF3400F583E0C0E0EEA4
:102983002435F582EF3400F583D0E0F08E828F8317
:10299300A3A3A3A3A3A3A3C082C0838E828F83A375
:1029A300A3A3A3A3E0F8A3E0F9D083D082E0C39864
:1029B300F508A3E099F509EE247FF582EF3400F5DD
:1029C30083E064017069EE2480F582EF3400F583BF
:1029D300E0F8A3E0F98E828F83A3A3A3A3A3A3A309
:1029E300E0FCA3E0FD8E828F83A3A3A3A3A3E0FA5D
:1029F300A3E0FBC3EA9CEB9D5010C3EC98ED994018
:102A03002EC3EA98EB995027800EC3EA98EB9940BE
:102A130007C3EC98ED9940177CA87D0AEEFAEFFB0B
:102A23001213ABEE247FF582EF3400F583E4F0EE6E
:102A33002434F8EF3400F9E8FCE9FDEE2435F5829F
:102A4300EF3400F583E0F8EE2437F582EF3400F538
:102A530083E0F50AE508850AF0A4F508AAF0850ADB
:102A6300F0E509A42AF509E82508F8E43509F97A17
:102A7300257B00122334EA8C828D83F0F874075887
:102A8300F97401B900028004C333D9FCFAE81313C3
:102A930013541FF8EE28F8EF3400F9E8245DF582AB
:102AA300E93400F583E05A6008EE2434F582EF80C0
:102AB3002CEE2434F582EF3400F583E0C0E0EE24FD
:102AC30036F582EF3400F583E0F5F0D0E084A8F02A
:102AD300EE28F8EF3400F9E82438F582E93400F5FC
:102AE30083E0F91233C1022967C082C0838518824B
:102AF300851983E0F8A3E0F9C3EA9CEB9D5010C36A
:102B0300EC98ED99401BC3EA98EB995014800EC3DF
:102B1300EA98EB994007C3EC98ED9940047901805A
:102B2300027900D083D08222EAC39CFAEB9DFB2278
:102B330074EF12248290096EE064086005E0640774
:102B4300702A9061C8E0602490099CE0F4601DE065
:102B5300F875F003A4C8AAF02AF9749E28FE740934
:102B630039FF8E828F83A3A3A3E07003022C6390AB
:102B73006060E0C0E0EE2468F582EF3400F583D0B6
:102B8300E0F0750C11750D0B750800750900E5D99A
:102B930014F50AE5D95403F50E60177403650E6046
:102BA3005CE50A6010EE2467F582EF3400F583E0FC
:102BB3007003022C48900B0CE06401602AEE24821F
:102BC300F582EF3400F583E0600478048002780036
:102BD300850A08E508C398FA95E0FB12127F8A0874
:102BE3008B09EA4509700512159D8074EE2482F560
:102BF30082EF3400F583E070048A0C8B0DE50A60E4
:102C030012850C82850D83F50BE5D9F0A3150BE531
:102C13000B70F6EE2482F582EF3400F583E0604416
:102C230074FC250AF50A780C122629AC0AA90EEEC3
:102C3300FAEFFB12144774021223D5E97026AA088F
:102C4300AB09120B17793D8E828F83A3A3A3A3E055
:102C5300FA7B00121153EEFAEFFB1213C31214594D
:102C6300790080747403650E6056850A107511002F
:102C73007810122629AC0CAD0DAA08AB0912142347
:102C830074021223D5EE2468F582EF3400F583E055
:102C930064807004747F8001E0F50C780C12262D9B
:102CA300E50EF50C780C12262DA90AAC08AD099097
:102CB300099CE0FA7B0012111774021223D58013CA
:102CC30090096EE06408600BAC0CAD0DEEFAEFFBFF
:102CD3001214B31215A979017F0A02252E74F51275
:102CE300248274FC1223BFEAFEEBFF8908A2AFE43F
:102CF30033F509C2AF806AEE2463F8EF3400F97A42
:102D0300007B00A2AFE433F50AC2AF88828983E077
:102D1300FCA3E0FDEC4D603A88828983E0FAA3E0EE
:102D2300FB8A828B83E0FCA3E0FD88828983ECF03D
:102D3300A3EDF08A828B83E4F0A3F088828983E099
:102D4300FCA3E0FDEC4D700A88828983A3A3E4F021
:102D5300A3F0E50AA2E092AF120B17900AAFE004CA
:102D6300F0EE2463F582EF3400F583E0F8A3E0F995
:102D7300E849603DEE2463F582EF3400F583E024F7
:102D830002FAA3E03400FBEA2402F50AEB3400F56F
:102D93000B780A1226298A828B83E0FCA3E0F9EEE2
:102DA300FAEFFB1213E774021223D5E97003022C26
:102DB300FA900AAFE06063900AB0E0F8900AAFE0DF
:102DC300C398500C740265087050900AB1E0604AD1
:102DD3008E828F83A3A3A3A3E0851882851983F032
:102DE300A3E4F0900AAFE0F8740212240AE8F0A317
:102DF300E4F0900AAFE0F8900AAEE028F074021213
:102E0300240AAC82AD83851882851983AA82AB8399
:102E13007901121123900AAFE4F0E509A2E092AF21
:102E230074041223D5022967008521878522C622CF
:102E3300C0E0C0D0E8C0E0E9C0E0EAC0E0EBC0E039
:102E4300ECC0E0EDC0E0EEC0E0C008C009C00AC0BD
:102E53000BC082C083C0F0A2AFE433FEC2AF759B48
:102E630000906182E0A2E05012E591A2E0500C755F
:102E730091FE740165217003122B33E0A2E55051DA
:102E8300E591A2E5504B7591DF90096EE064076010
:102E930005E0640870237401652170357901900998
:102EA3009CE0FA75F003A4CAA8F028FB749E2AFAE2
:102EB30074093BFB122CE08018E0640D7013900939
:102EC30090E004F064287002E4F07A00E0F912154F
:102ED300AF906182E0A2E64003022F7AE591A2E679
:102EE3004003022F7A7591BF90096EE06405700864
:102EF3001214DD1214E980031214E3752100121574
:102F03003DE990096FF079001215311213217A010E
:102F13007B0090096DE0F9120577907803E0644235
:102F23007055900B10E014F0704DC2AF122F3200A9
:102F3300782AD0E0F618D0E0F6E59F5407700575BF
:102F430009FF800375097FC4C0E07829E6F5080806
:102F5300E65509F509740B780812239DD0E025087E
:102F6300F8906270E0A2E740F8E8C333906272F031
:102F7300906270E0D2E0F0906181E0A2E35009E555
:102F8300E9A2E3500375E9F7A3E0A2E75009E5914D
:102F9300A2E7500375917FEEA2E092AFD0F0D08309
:102FA300D082D00BD00AD009D008D0E0FED0E0FD0B
:102FB300D0E0FCD0E0FBD0E0FAD0E0F9D0E0F8D0EC
:102FC300D0D0E032C0E0C0D0C082C083906183E043
:102FD300A2E05009E5BFA2E0500375BFFEE0A2E105
:102FE3005009E5BFA2E1500375BFFDE0A2E250091D
:102FF300E5BFA2E2500375BFFBE0A2E35009E5BFC2
:10300300A2E3500375BFF7E0A2E45009E5BFA2E4D1
:10301300500375BFEFE0A2E55009E5BFA2E55003F9
:1030230075BFDFE0A2E65009E5BFA2E6500375BF16
:10303300BFD083D0828088C0E0C0D0E8C0E0E9C0C0
:10304300E0EAC0E0EBC0E0ECC0E0EDC0E0C0F0E5DA
:10305300A7A2E6500FE5A1A2E6500953A7BF75A1A9
:10306300BF12309FE5A7A2E5500CE5A1A2E55006EB
:1030730053A7DF75A1DFE5A7A2E15009E5A1A2E10E
:10308300500375A1FDE5A7A2E2500CE5A1A2E25011
:103093000653A7FB75A1FBD0F0022FB074F81224DE
:1030A3008275210190096EE0640670151214778A07
:1030B300828B83A3A3A3A3A3A3E0FAA3E0FB12142D
:1030C300CBA2AFE433FED2AF900974E06401701871
:1030D3007A207B0090096DE0F912060D7A207B00BF
:1030E30090096DE0F912057D906182E0D2E6F090DF
:1030F3000B0DE0602185C6228016900973E0640100
:103103007008E5C654F84405F5C653BEFC122E2CD0
:103113007401652160E4EEA2E092AF7F0102252EE7
:10312300008E238F2485822885832785188285191D
:1031330083E0CEA3E0CF852882852783EBC9EAC845
:10314300EDCBECCA75F010C3E833C8E933C9EA33F1
:10315300CAEB33CBC3EA9EF526EB9FF525B35004A8
:10316300AB25AA26EC33CCED33CDD5F0DAAE23AFC5
:10317300242274ED1224828A088B098C0A8D0B7425
:103183001312240A780C12228F7808790C12186310
:103193007510017511C87512007513005012780867
:1031A300790C1221F07810790812186350168010E8
:1031B300780C79081221F07810790C121863400406
:1031C3007901800279007F0C02252E74ED1224828E
:1031D3008A088B098C0A8D0B741312240A780C123B
:1031E300228F780C790812186340117808790C1231
:1031F30021F0AA08AB09AC0AAD0B8022751000754B
:1032030011007512007513017810790C1221F078F2
:103213001079081221B7AA10AB11AC12AD1380A616
:103223008A828B837508FF7509FF750AFF750B008A
:1032330078081222567F0402252E74F51224828CFC
:10324300828D83780812228F8A828B8378081222D8
:103253001CEA2404F8EB3400F98C828D83A3A3A326
:10326300A3E0FCA3E0FD88828983C3E09CF0A3E094
:103273009DF088828983C3E09420A3E0944E402686
:103283008A828B837508FF7509FF750AFF750BFF2B
:1032930078081221DD8A828B83A3A3A3A3E02420D1
:1032A300F0A3E0344EF002322374F5122482E9FED7
:1032B300900AC3E0FAA3E0FBEEC333F8E433F974F6
:1032C300AE28F582749639F583E02AF508A3E03B2E
:1032D300F50978081226297A407B427C0F7D00127B
:1032E300312474021223D58A088B098C0A8D0B743E
:1032F30010780812217FAA08AB097F0402252E74D7
:10330300F11224828A0C8B0D8C0E8D0F740F1224F4
:103313000AE0FAA3E0FB741112240AE0F508A3E023
:10332300F5097808122629EA2401F508EB3400F59B
:1033330009E4F50AF50B780C790812207B750871FE
:10334300750902780C790812207BAA0CAB0DAC0E20
:10335300AD0F12312474021223D58B09EA4509609B
:10336300047A0180027A00EC2AFCED3400FD741328
:1033730012240AE0F8A3E0F9E8FEE9FFECF8EDF91E
:103383007A717B02122334880889098E828F8378AD
:103393000812229EECF8EDF97A717B021223348A2B
:1033A300088B09740578081223AC8E828F83A3A33C
:1033B300A3A3E508F0A3E509F07F0802252EC08248
:1033C300C083E9906000F0D083D0822200202020C7
:1033D30020202020202028282828282020202020C2
:1033E3002020202020202020202020202088101092
:1033F30010101010101010101010101010040404EE
:1034030004040404040404101010101010104141AB
:103413004141414101010101010101010101010199
:1034230001010101010101011010101010104242AD
:103433004242424202020202020202020202020269
:1034430002020202020202021010101020FFFFFF0C
:10345300FFFFFFFFFF74F7122416E99008ADF07C1D
:10346300E57D087AFF7BFF1210759008AE74FFF0BC
:10347300A3F0A3E4F0A3F079051210039008ADE0E4
:10348300F9120F2B7A8D7B101212317F010224E87F
:1034930074F41224168A088B09EB54806030900868
:1034A300ADE0F912055F8A0A8B0BAE0AAF0BEE4F44
:1034B30060138E828F83E064B07003121015EEFAEE
:1034C300EFFB12054DAA08E5096480FB80047A002E
:1034D3007B0002364574F212241674FC1223BFEAF1
:1034E300FEEBFFEE4F6038740212240AEEF0A3EFF6
:1034F3001238AAECF0A3ED1238AAAA82AB83120FFA
:1035030025E9F5087073741212240A12445EE50A61
:10351300450B60658E828F83123586EE4F7005757D
:10352300080280557A067B001205BF8A0C8B0DA812
:103533000CA90DE8497005750813803D88828983BD
:10354300E4123590A3A3EEF0A3EF1248F7E50AF0D7
:10355300A3E50BF09008B31236189008B36017E098
:10356300FCA3E08003EAFCEBFD8C828D831236180A
:1035730070F38C828D83124383A90874041223D5BC
:10358300024AF9A3A3A3A3E0FEA3E0FF22F0A3F062
:10359300888289832274F2122416890AE975F01746
:1035A300A4FEAFF09008B2E4F09008B012361860B1
:1035B3000A1205C59008B0E4F0A3F0EEFAEFFB128F
:1035C30005BF8A088B09EA4509602FEEFCEFFD79F8
:1035D3000012053B9008B0E508F0A3E509F07B0075
:1035E3008008123602E4F0A3F00BEBC3950A40F215
:1035F300E50A9008B2F0790080027913024AF9EBE8
:1036030075F017A4F8A9F09008B0E028FAA3E03900
:103613008A82F58322124119EA4B2274F41224168A
:103623007900EAA2E0501B75082C750998780812F6
:1036330026297C047D007A727B0F120FFD7402121F
:1036430023D57F040224E8C082C0839008B31236D6
:103653007D601C88828983A3A3E06A7003A3E06B67
:103663008882898370E8A3A3A3A312411580047AF7
:10367300007B00D083D082020122124BCCE8492286
:1036830074EE12241674FC1223BFEAFEEBFF8518B6
:1036930082851983E4F0A3F0EE2402124367EE243B
:1036A30005123898EE2404F50EEF123C7DE024FE5B
:1036B300603924FC604624FE605224FE605E24FED2
:1036C300700302379D24FE700302381524FE700335
:1036D30002382424FE700302383324FC70030238BA
:1036E3004224FE700302385102388E9008CC7417BE
:1036F300F0A3E41238B2120CA302388E8518828527
:103703001983AC82AD8312101B02385E8518828543
:103713001983AC82AD8312102102385E850C0885B3
:103723000D09740212240AAC82AD838508828509CF
:1037330083124115120F498A0C8B0DAC0CAD0DECA5
:103743004D6042E4F50CF50D780C122629750CCC6E
:10375300750D08780C122629750CCD750D08780C9B
:10376300122629740812240A122640791612410FD0
:1037730012105D74081223D5E9F50C700B12410B7E
:10378300120CBB800F750C018508828509831238E2
:10379300A0124383850C08023861740212240AAC18
:1037A30082AD83850C82850D83124115120F498AE0
:1037B300108B11AC10AD11EC4D6043850C82850D5F
:1037C30083A3A31226407510CC7511087810122616
:1037D300297510CD75110878101226297408122442
:1037E3000A122640791612410F12105D7408122333
:1037F300D5E9F509700B12410B120CC1800F750945
:1038030001850C82850D831238A012438385090834
:10381300804C851882851983AC82AD831210278072
:103823003A851882851983AC82AD8312102D802BC3
:10383300851882851983AC82AD83121033801C8571
:103843001882851983AC82AD83121039800D8518D7
:1038530082851983AC82AD8312103FE9F508E50830
:1038630060298E828F83A3E06414601F850E828596
:103873000F83E09008CC1238AA124BC89008CD12DF
:103883004383E508A31238B2120C9DEEFAEFFB1244
:103893000FC702426FF50CEF3400F50D22124BCC2B
:1038A30085188285198322F085188285198322F071
:1038B3007CCC7D08850A82850B831241192274EE24
:1038C30012241674FC1223BF8A0A8B0B8C0E8D0FE5
:1038D300EA2405F508EB3400F5097C157D00790031
:1038E3007ACC7B0812053BE5082402F50CE50912A6
:1038F300389B8518828519838582108583117810FA
:10390300122629850882850983A3A3A3A3123DC593
:10391300122629E5082405F510E5093400F5117888
:1039230010122629850C82850D8312411F120F4325
:1039330074061223D58A108B11AE10AF11E50A2439
:1039430002F50AE50B12436AEE4F7003023A8780D1
:1039530017740212240A12411588828983EAF0A39C
:10396300EBF09008CCE004F09008CCE0C394054061
:1039730003023A87E4F510F5117810122629751021
:10398300B575110878101226297510B675110878C7
:1039930010122629740612240A1226407910EEFC0E
:1039A300EFFD12410F12105D74081223D5E9705E0A
:1039B300850882850983A3A3A3A3A3A3A3E0F89007
:1039C30008B5E0687048123DC51226297CB67D080B
:1039D300E5082408FAE5093400FB120535740212E0
:1039E30023D5E960298E828F83A3A3A3A312411554
:1039F3009008CCE0F510740278101223AC74CD2536
:103A030010F58274083511F583EAF0A3EBF0740224
:103A130012240A85821085831178101226297402D4
:103A230012240A122640850C82850D83124BDD1267
:103A33000F4F74041223D58A108B11AE10AF11905F
:103A430008CCE0F510751100740278101223AC74E1
:103A5300CC2510F874083511F988828983A31236AE
:103A630018700302394BE82403F8E93400F9EE4FE8
:103A730060030239548882898374FFF0A3F09008AD
:103A8300CCE004F09008CCE0600A12410B120CAFBA
:103A93007900800B85088285098312437A790A02AB
:103AA300426F74EA12241674FE1223BF8C128D1314
:103AB300EA2405F50CEB124BE712358A75080075FD
:103AC3000900EA2402F510EB3400F511851882850C
:103AD300198385820A85830B780A122629850C822D
:103AE300850D83A3A3A3A3123C87122629E50C24E7
:103AF30005F50AE50D12436A780A122629850C8218
:103B0300850D83124BDB120F4374061223D58A0AE9
:103B13008B0BEA450B7003023C38EA2404F50EEBE9
:103B2300123C7D12358A8A828B83A3A3A3E0F98595
:103B33001082851183124115120F31E9F5096003D3
:103B4300023C38E4F514F51578141226297514B5DA
:103B530075150878141226297514B6751508781486
:103B6300122629740612240A1226407913AC0AADD0
:103B73000B85108285118312411512105D74081292
:103B830023D5E9F5096003023C389008B5E0F8E570
:103B9300087009E024029008CDF080179008CDE06A
:103BA300FCE82402FAE43400FBEA6C7001EB6003E6
:103BB300023C3C850882AA82123DBC9414123DB497
:103BC3005073850E82850F83E0C0E074CE2A123CC9
:103BD30074D0E0F00508850E82850F83A3E0C0E072
:103BE30085080A74CE250A123C74D0E0F0050890CB
:103BF30008B5123C871226297CB67D0885080A740D
:103C0300CE250AFA74083400FB120523740212232A
:103C1300D59008B5E02508F50874FF6E700374FFAE
:103C23006F6012EE24010EEF3400FFE508C3941415
:103C33005003023ACFE508601312400085108285D5
:103C43001183124115120CB579008014E509700334
:103C530075090A851282851383EEF0A3EFF0A90993
:103C630074021223D57F0E0224E885080C74CE2536
:103C73000CF58274083400F583223400F50F850EA9
:103C830082F5832212490A2274EE12241674FE125C
:103C930023BF8C0E8D0FEA2405F50CEB12389B75B0
:103CA3000B009008CCE4F0F50AEA2402F508EB34A3
:103CB30000F50980499008CCE0FA9008B5E0F812C5
:103CC3003DBC9417123DB4400D9008CCE0F8741637
:103CD300C3989008B5F0123DC51226297CB67D081D
:103CE30074CD2AFA74083400FB12052374021223DC
:103CF300D59008B5E0F89008CCE028F0050AE50C6B
:103D03002416F582E50D123C78E0F8E50AC39840E5
:103D130003023D9D9008CCE0C39416507DE50AC391
:103D230033F8E433F9E50C28FEE50D39FF851882F5
:103D3300851983AC82AD838E828F83124115120F56
:103D4300498A108B11AC10AD11EC4D7005750B0148
:103D53008043E4F510F51178101226297510B57516
:103D6300110878101226297510B6751108781012EB
:103D73002629740612240A1226407916850882859C
:103D8300098312411512105D74081223D5E9F50B4E
:103D93007003023CB812437680107CCC7D08850802
:103DA30082850983124115120CC7A90B74020242C2
:103DB30071E99400C365D03322EA28F8E43400F9AA
:103DC300E822E0F51075110078102274EA12241627
:103DD30074FC1223BF8A0C8B0D8C128D13EA2405FD
:103DE300F50AEB12436A750800750900E50A240217
:103DF300F510E50B3400F511740212240A85820EC6
:103E030085830F780E122629850A82850B83A3A347
:103E1300A3A31248B6122629E50A2405F50EE50BDD
:103E23003400F50F780E122629851082851183122E
:103E3300437012410F120F4374061223D58A0E8B5F
:103E43000FAE0EAF0FE50C2402F50EE50D3400F5B1
:103E53000F80408882898374FFF00508123C6D74DB
:103E6300FFF005089008B5E0F50C750D00780C120D
:103E730026297CB67D0885080C74CE250CFA7408B7
:103E83003400FB12052374021223D59008B5E025F4
:103E930008F508EE4F60718E828F83A3A3A3E0F928
:103EA300850E82850F83124115120F31E9F509EE54
:103EB3002404123898E97044E4F514F515781412C3
:103EC30026297514B575150878141226297514B6A4
:103ED3007515087814122629740812240A1226402C
:103EE3007911EEFCEFFD850E82850F8312411512C9
:103EF300105D74081223D5E9F5096027850C8285C6
:103F03000D83123FF6124383E5087003023FDC1270
:103F13004000850E82850F83124115120CCD790066
:103F2300023FF1850882AA82EA9008B57009E0246D
:103F3300049008CDF08022E0F89008CDE0F514E875
:103F43002404FCE43400FDEC65147001ED70C01230
:103F53003DBC9412123DB450B6850C82850D83E0AE
:103F6300C0E074CE2A123C74D0E0F00508850C82C0
:103F7300850D83A3E0C0E0123C6DD0E012401285B2
:103F8300820C85830D780C122629740412240A12DC
:103F93002640851082851183124BDD120F4F740466
:103FA3001223D58A0C8B0DAE0CAF0D85080C74CE85
:103FB300250CF874083400F9EE4F7003023E568561
:103FC3001882851983E088828983124012A3E0C096
:103FD300E0123C6DD0E0023E64E509700375090A06
:103FE300850A82850B83123FF6124383A909740461
:103FF300023C65124BCC851282851383229008CD37
:10400300E0F5F0E508849008CCF07CCC7D0822F044
:1040130005088518828519832274EC12241674FE10
:104023001223BF8A088B098C0E8D0FEA2405FEEB41
:104033003400FF851882851983AC82AD838E828F0D
:1040430083124115120F498A0A8B0BEE241812387A
:1040530098EA450B70030240E61242585032851825
:10406300828519831241151210518A108B11EA456A
:1040730011606B7912AC0AAD0B8508828509831236
:104083004115851082851183122414E9F50A7058AD
:10409300E4F50AF50B780A1226298E828F83A3A3EF
:1040A300E0F50A780A122629EE2403124367780AF8
:1040B3001226298E828F8312411F121063740612F7
:1040C30023D5E9F50A7021850C82850D83E0701FE5
:1040D300850882850983124115120CD38011750A54
:1040E3000E8009750A018004E50A60031243768590
:1040F3000C82850D83E0600479008002A90A7402B2
:104103001223D57F0C0224E87CCC7D08850A8285A6
:104113000B8312411922E0FAA3E0FB22E0FCA3E0A7
:10412300FD8508828509831241192274EE12241633
:1041330074FE1223BF8A088B098C0C8D0DEA2405AB
:10414300FEEB3400FF750E00851882851983AC825F
:10415300AD838E828F83124115120F498A0A8B0B0E
:10416300EA450B70030242441242585035851882C7
:104173008519831241151210518A0E8B0FEA450FD0
:10418300605E7912AC0AAD0B850882850983124102
:1041930015850E82850F83122414E9F50E60030240
:1041A300424785088285098312445EAA0AFB1210DE
:1041B300458A108B11A810A911E849701E7AFF7B5C
:1041C300FF1210458A108B11A810A911E849606CE1
:1041D30088828983E50AF0A3E50BF0750A0080075E
:1041E300750E0E805F050A9008B2E0FAE50AC39ADD
:1041F300504AE50A75F017A4FAABF088828983A3C5
:10420300A3E02AFAA3E03BFB8A828B83124370EC80
:104213004D70D2750A17750B00780A122629EEFC29
:10422300EFFD12052374021223D5EEFCEFFD850882
:1042330082850983124115120CD98014750E0980E9
:1042430003750E01124BC4850C82850D83124383C3
:10425300A90E023DAFE5082402F508E5093400F58F
:10426300098A828B83A3A3A3E0A2E5227404122309
:10427300D57F0A0224E874EC1224168C108D11EAFF
:104283002405F50CEB12389B750F00EA2402F50A9E
:10429300EB12436A850A82F5831241151210458A8F
:1042A300088B09EA4509700302435C750E008071AF
:1042B300850C82850D83E06401704F8E828F83A30A
:1042C300A31226408E828F83A3A3A3A3E0F51275C6
:1042D30013007812122629EE2405F512EF3400F5A7
:1042E30013781212262912410F1210637406122337
:1042F300D5E9F50F6014850C82850D83E4F0124B2C
:10430300C48510828511831243837C177D00790055
:10431300EEFAEFFB12053B8E828F83E4F0A3F005E8
:104323000E9008B2E0F8E50EC398501EE50E75F046
:1043330017A4F8A9F0850882850983A3A3124BF17A
:10434300124370EC4D60030242B3850882850983F2
:1043530074FFF0A3F0E50F700612410F120CDFA9F2
:104363000F024106F50AEF3400F50B22A3E0FCA38C
:10437300E0FD228E828F83124BCC850E82850F83C4
:10438300E8F0A3E9F022C082C0839008AEE06A702F
:1043930003A3E06B70067AAE7B0880047A007B008F
:1043A300023676C082C08378008C828D83E06A7087
:1043B30003A3E06B7010E875F003A4F8A9F0EC28F0
:1043C300FAED39FB8015088C828D83A3A3A3E06AE1
:1043D3007003A3E06B60DF7A007B0002367674F62D
:1043E30012241612100F8A828B83E582458370068E
:1043F3007A007B008007A3A3A3A3124115024A7589
:1044030074F2122416E9FE740E12240A12445E7426
:104413001012240A1248D68C828D83E0640270360F
:10442300A3124BD2F50CA3E0F9A80C740268700335
:104433007429697021750C02750D00780C122629F8
:104443007808122629780A122629EEF912108774A1
:10445300061223D580027901024AF9E0F50AA3E0A6
:10446300F50B2274E812241674FB1223BFE9851896
:1044730082851983F08A168B17ECFEEDFF75100009
:10448300741D12240A124BC8741D12240A1243838A
:104493008E828F83A3A3A3E0A2E4502D741D122464
:1044A3000A1241151210518A828B83E5824583706B
:1044B300030248A7790AEEFCEFFDAA16AB171224F4
:1044C30014E9F51060030248AA741F12240A124863
:1044D300D6742112240A12445E742312240AE0F5CE
:1044E3000EA3E0F50F8E828F83E06402600302481F
:1044F30055A3124BC8850882850983A3858212853B
:104503008313EE240612389888828983E0FAA3E0A5
:10451300F9EA2400F514E439F51578141227120189
:1045230000002801284A45070002280F4603287C7B
:1045330045002946470129714702291247032946A5
:10454300470429F0475548E50E450F6003024850DC
:10455300850C82850D831248CBFAE9FB8A828B8313
:10456300E0850A82850B831249011226298A828BF0
:1045730083A3E0FCA3E00247DAE50E450F600302E4
:104583004850850A82850B837401F01248DE850842
:1045930082850983F07C007D008E828F83A3A3A391
:1045A300A3E02401FAA3E03400FB120F49EA4B60B5
:1045B300418A828B83E02402F8850A82850B83E09B
:1045C30028F0EA2404F8EB3400F988828983E08533
:1045D30012828513831249131249011226298A82F2
:1045E3008B8312436FE5082403FAE5093400FB02C9
:1045F30047DF850A82850B83E02404F07C047D0079
:104603007900AA12AB1312053B0248AAE50E450F27
:1046130060030248501248DEFEA3E0FF850A82854C
:104623000B837404F0EE850882850983F0EF85120D
:1046330082851383F0740312240AAC82AD83EEFAED
:10464300EFFB120F498A0C8B0DEA450D70030246EE
:10465300F38A828B83A3A3123586740112240A85FD
:10466300820E85830F780E122629740512240A12EE
:1046730026407CFF7DFF120F4F74041223D58B0F4E
:10468300EA450F7033850C82850D831248B61226D6
:1046930029850C82850D83A31226407C027D007A36
:1046A3003A7B99120D7B74041223D5E9700A7401C5
:1046B30012240A74FFF0A3F08E828F83E0640270E9
:1046C30039750C02750D00780C1226298E828F83A2
:1046D30012436FE5082404FAE5093400FB120523AD
:1046E30074021223D5850A82850B83E02402800994
:1046F300740112240AEEF0A3EFF0740112240A12DB
:1047030048C7F0740112240AA31248BF02484AE5BD
:104713000E450F6003024850850C82850D831243BA
:1047230070AA16AB1712107B850A82850B8374025D
:10473300F0EA850882850983F0851282851383EB6D
:1047430002484DE50E450F60030248501248DEF85B
:10475300A3E0F9850A82850B837402F0E885088259
:10476300850983F0E985128285138302484D850C00
:1047730082850D8312411512051DEAFC8C82A882E5
:10478300C3950EE4950F405FE8650E7002E50F7068
:10479300047C008022851882851983E0FAE50E2ABD
:1047A300FAE50F3400FBC3EA98EB94005003E08072
:1047B30005E50ECCC39CFCEC850A82850B83F08C4B
:1047C3000A750B00780A122629850C82850D83E071
:1047D300250EFCA3E0350FFDAA08AB0912052374CF
:1047E300021223D50248AA7510070248AAE50E450E
:1047F3000F705A850C82850D83124BC8850A8285FA
:104803000B8374071235921248BF123592A3E085C9
:104813001282851383F0E82402FAE93400FB8A82CA
:104823008B831248BF1248EE1248C7A31248F712EF
:1048330048D0F0E82405F8E93400F9888289831226
:1048430048D0A3124913A3A3A3A3F0805A75100B56
:104853008055741D12240A12411512100F8A828B7F
:1048630083E5824583603D124BC8880C890DE8457A
:104873000D6031780E122629780A1226297808123B
:104883002629740612240AE0F9EEFCEFFDAA16AB02
:1048930017850C82850D8312241474061223D5E91F
:1048A300F510800375100EA91074051223D57F101F
:1048B3000224E8E0F50E750F00780E22E0850882E9
:1048C3008509832212491D22124BCCE82212491D6D
:1048D300A3A322E0F508A3E0F50922850C82850D48
:1048E30083E0F8A3E0F5838882E022A3A3F08A8221
:1048F3008B83A322F088828983A3A3A3A322F08AB4
:10490300828B8312490A22E0F50A750B00780A228A
:10491300F088828983A312491D22E08508828509D4
:1049230083A3A32274EE12241674FE1223BF8A0AF1
:104933008B0BECFAEDFB741412240AE0F510A3E0E0
:10494300F511741612240AE0FE741812240AE0F515
:104953000EA3E0F50F851882851983AC82AD83120F
:104963000F498A0C8B0DEA450D604985188285191C
:104973008312411512100F8A828B83E5824583606F
:104983002FA3A31248D6E50845096024780E122602
:10499300297810122629EEF9AC0CAD0DAA0AAB0B3F
:1049A30085088285098312241474041223D5800692
:1049B300790E80027901023DAF74F612241674FE5B
:1049C3001223BF740C12240A1248CB85188285194E
:1049D30083F0740112240AE9F0E4F508F509780874
:1049E3001226297508027808122629740412240A4B
:1049F30085820885830978081226291210637406B4
:104A03001223D574021223D5806874F7122416EA90
:104A1300FEEBFF89087CE57D0812107BEA540260F7
:104A23000BA908EEFAEFFB120F3D80027901023465
:104A33008E74F612241674FF6A700374FF6B70167B
:104A43008C828D83124A7AE4F08C828D83A3A3A394
:104A5300124A7AA3801812104B8A088B09A808A956
:104A630009E849600D8882898374FF123590A3A3F6
:104A7300E4F07F020224E874FFF0A3F08C828D83BC
:104A8300A3A32274F612241612104B8A828B83E599
:104A93008245836006A3A3E0FA80027A007B00804C
:104AA300D174F21224168A088B09ECFEEDFF740E02
:104AB30012240AE0F50A12104B8A0C8B0DA80CA9DC
:104AC3000DE8497026EEFCEFFD7AFF7BFF12104BD9
:104AD3008A0C8B0DA80CA90DE84970047911801676
:104AE30088828983E508F0A3E509F088828983A396
:104AF300A3E50AF079007F060224E874EE12241677
:104B0300EAFEEBFF8C088D09890C741412240A1237
:104B13004BC8741612240A124115750D00E849603A
:104B230003024BBC7402650C6003024BB774121290
:104B3300240A124BD2FCA3E0F9EC2400F50EE4396D
:104B4300F50FEAF4F8EBF4F9EC58F8E50F59F9E846
:104B530049705CE5082406F8ED3400F9880A890BEE
:104B63008882F583124BDD12107B8A108B11E50EC0
:104B730065107004E50F65116042780E12262985D1
:104B83000A82850B83124BDD12108174021223D526
:104B9300E9F50D7027780E12262985088285098389
:104BA300A3A3124BDB12109374021223D5800D754D
:104BB3000D808008750D0D8003750D0BA90D024244
:104BC300748E828F83124BCC22E0F8A3E0F9221279
:104BD3004BCC88828983E022A3A3E0FCA3E0FDEE13
:104BE300FAEFFB223400F50D850C82F58322E028D1
:104BF300FEA3E039FF8E828F832274F2122416EA19
:104C0300FEEBFF890B7401650B600E7402650B707C
:104C13006A790112124FE97062EEFAEFFB12104546
:104C23008A088B09EA45096047750A00800B7C17DF
:104C33007D00790012053B050A9008B2E0F8E50A09
:104C4300C3985021E50A75F017A4F8A9F0850882E6
:104C5300850983A3A3E028FAA3E039FB8A828B8327
:104C630012367D70C985088285098374FFF0A3F02D
:104C73007CE57D08EEFAEFFB121075024AF974F237
:104C83001224168A088B09ECFEEDFF740E12240A17
:104C930012445E900F70E0F4603D7A097B001205C8
:104CA30047EA4B60328A828B8374B1F0A3E41248E3
:104CB300F0A31248EEA3E508F0A3E509124CDDEEDC
:104CC300F0A3EF124CDDA3A3E50AF0A3E50BF090EC
:104CD3000F70E0F9120553024AF9F08A828B83A31D
:104CE300A3A3A3A322C082C0839061907404F0A302
:104CF3007448F0A37402F09061807440F09061BC3A
:104D03007403F09061877419F0906265741BF090DE
:104D13006249E0C3941390619C400A7409F0906067
:104D23006674018007740DF0906066E4F090619AF8
:104D33007433F0A37455F09061A0743AF0900B0BA8
:104D4300E064017009C2919009727467800590094B
:104D5300727461F0903456E493906186F09034500D
:104D6300E493F46027E493540FF8906185E068605E
:104D730012E5C654804449F5C6E59E547F644970E4
:104D8300F8E8F053C680E59E547F70FA7905121552
:104D930091024F16C082C083E5A8F853A87E9061A4
:104DA30081E4F0A3F0A3F0C2BA539AFEC289759BC3
:104DB30000C2C275E90075910075BF0075A9117530
:104DC300B905906181F0A374C0F0A3E4F0D2BA43B3
:104DD3009A0174805842A8024F16C082C08374F8A7
:104DE3001223BF900970E0F8A3E0F9E849700302C9
:104DF3004F0B900970E05440602379088518828531
:104E03001983AA82AB83121405851882851983AA94
:104E130082AB831210FF900970E054BFF0E054801E
:104E23006010790C7A317B0B121405900970E054F1
:104E33007FF0E0A2E0503190619A7433F0A374558F
:104E4300F09061A0743AF0900B0BE064017009C21A
:104E530091900972746780059009727461F0121160
:104E630005900970E054FEF0E05402603190619ABD
:104E7300743FF0A3745AF09061A0747FF0900B0B11
:104E8300E064017009D291900972747180059009F0
:104E930072746AF0121105900970E054FDF0E05449
:104EA300046013903454E493906186F012110B90D4
:104EB3000970E054FBF0E054086013903455E49318
:104EC300906186F012110B900970E054F7F0E054F2
:104ED300106013903456E493906186F012110B9096
:104EE3000970E054EFF0E05420600A12110B9009AE
:104EF30070E054DFF0A3E05401600D12132D121182
:104F030011900971E054FEF074081223D5024F1674
:104F1300F0A3F0D083D08202012274EC1224167421
:104F2300F41223BF851882851983AC82AD83758300
:104F33009875826674041222D290345493F46003F9
:104F43000250A9907808E0C3940250030250897478
:104F53000412240AAC82AD837583977582C67408E4
:104F63001222D28518828519838582128583137450
:104F73000412240AAC82AD83750EFF750FFF7FFF09
:104F83007E00750C48750D78801574086E700302E9
:104F9300501D74096E700302501D740A6E607B8588
:104FA3000C82850D83780812228F8C828D83A90948
:104FB300E50AC9F888107418780812217FE51045AE
:104FC30008F8C3E098A3E099850C82850D837808DF
:104FD30012228F40188C828D837418780812217FD7
:104FE300E5104508F8E0C398F8A3E0801C7418782E
:104FF3000812217FE5104508FAE9FB8C828D83E0D6
:10500300F8A3E0F9EAC398F8EB99F9C3E8950EE938
:10501300950F5006880E890FEEFF0EE50C2404F55C
:105023000CE50D3400F50DEEC394135003024F8DC0
:1050330074FF650E700474FF650F60238F0874029C
:1050430078081223AC74482508F58274783509F57D
:1050530083780812228F851282851383E508F0EC8A
:105063002402FCED3400FD851282851383A385821F
:1050730012858313740C12240AE5826C7003E58392
:105083006D6003024F7B75080175090078081226CD
:1050930029740212240AAC82AD837A157B0D1207A0
:1050A300BD74021223D5740C1223D57F0C0224E89D
:1050B300C082C0839061AE7468F0A3746AF090629A
:1050C3004574FBF0A304F053F4FD43FE02900B0B75
:1050D3007401F09061A0E0643A90619A7023743394
:1050E300F0A37455F09061A0743AF07401640170F8
:1050F30009C2919009727467802890097274618063
:1051030021743FF0A3745AF09061A0747FF074018E
:1051130064017009D29190097274718005900972CB
:10512300746A024F157F080224E8C082C083900A84
:10513300BDE06401700A900AC2E06004790C800249
:105143007900024F16C082C08375E1F1900AC0E076
:10515300605B14600914605F14605714705E12136F
:105163003F900AB6E0F97AB77B0A1215137AD67B19
:10517300BE7C897D8E1215497A557B557C557D0001
:1051830012151F900AC1E0F912152B79011215852A
:10519300900AB4E0F8A3E0C82416F582E83400F5D9
:1051A300837457F0A37413F07900024F161213455A
:1051B30080AF12134B80AA12135180A5791280EA93
:1051C30074F012241675D90D900AA1E0A2E0E4331D
:1051D3001313F8900AB6E0C4333354C0484401F5BE
:1051E300D978B4790A88828983A3A3A3E0F5D988FF
:1051F300828983A3A882A983E864BA7003E9640A55
:1052030070E378A1790A88828983A3E0F5D988823B
:105213008983A3A882A983E864A77003E9640A7059
:10522300E575E195900AA1E0F97AA27B0A121519B6
:10523300900F9274F1F0A37412F0A3744DF0A37461
:1052430014F0A3744DF0A37414F0A3744DF0A3747D
:1052530014F0A374F7F0A37412F0A3744DF0A374C5
:1052630014F0A3740FF0A37413F0900FA0744DF017
:10527300A37414F0A3744DF0A37414F0A3744DF04D
:10528300A37414F0A3744DF0A37414F0A3744DF03D
:10529300A37414F0A3744DF0A37414F0900AC0E047
:1052A3006401900AB47012E0F8A3E0F5838882A346
:1052B300A37508007509088010E0F8A3E0F583885A
:1052C30082A3A3750804750900750A00750B00789D
:1052D300081221CA750CFF750DFF750EFF750F00BF
:1052E3007808790C122230900AB4E0F8A3E0C824BD
:1052F3000EF582E83400F583780812229E900AB4F2
:10530300E0F8A3E0C82414F582E83400F5837413AD
:10531300F090096E7402F002512874F7122416906B
:105323000AC6E02407F5D9900AB6E0C4333354C063
:10533300F5D978B4790A88828983A3A3A3E0F5D940
:1053430088828983A3A882A983E864BA7003E96485
:105353000A70E3900AC6E0601F78B4790AFAE82479
:1053630013F582E93400F583E0F5D988828983A3B4
:10537300A882A9831AEA70E6900AE6E02407F5D921
:10538300900AB6E0C4333354C04404F5D978B479F1
:105393000A88828983A3A3A3E0F5D988828983A39A
:1053A300A882A983E864BA7003E9640A70E3900AE7
:1053B300E6E0601F78B4790AFAE82433F582E93429
:1053C30000F583E0F5D988828983A3A882A9831A8B
:1053D300EA70E675E195900F9274FDF0A37412F0F4
:1053E300A3744DF0A37414F0A3744DF0A37414F0DC
:1053F300A3744DF0A37414F0A374F7F0A37412F024
:10540300A3744DF0A37414F0A3740FF0A37413F0FA
:10541300900FA0744DF0A37414F0A3744DF0A37413
:1054230014F0A3744DF0A37414F0A3744DF0A3749B
:1054330014F0A3744DF0A37414F0A3744DF0A3748B
:1054430014F0900AB4E0F8A3E0C8240EF582E8341F
:1054530000F58374FFF0A3F0A3F0A3F0900AB4E087
:10546300F8A3E0C82414F582E83400F5837412F03D
:1054730090096E7401F0FF0224E874F71224169069
:105483000AC6E02407F5D9900AB6E0C4333354C002
:105493004402F5D978B4790A88828983A3A3A3E067
:1054A300F5D988828983A3A882A983E864BA7003A3
:1054B300E9640A70E3900AC6E0601F78B4790AFAD7
:1054C300E82413F582E93400F583E0F5D98882896D
:1054D30083A3A882A9831AEA70E675E195900F92D7
:1054E3007409F0A37413F0A37409F0A37413F0A365
:1054F3007409F0A37413F0A37409F0A37413F0A355
:105503007409F0A37413F0A37409F0A37413F0A344
:10551300740FF0A37413F0900FA0744DF0A37414E0
:10552300F0A3744DF0A37414F0A3744DF0A374149A
:10553300F0A3744DF0A37414F0A3744DF0A374148A
:10554300F0A3744DF0A37414F0900AB4E0F8A3E050
:10555300C8240EF582E83400F58374FFF0A3F0A3AA
:10556300F0A3F0900AB4E0F8A3E0C82414F582E8AD
:105573003400F5837414F090096E7404F0025844F7
:1055830074F7122416900AC6E02407F5D9900AB6D8
:10559300E0C4333354C04406F5D978B4790A888219
:1055A3008983A3A3A3E0F5D988828983A3A882A9C9
:1055B30083E864BA7003E9640A70E3900AC6E060A2
:1055C3001F78B4790AFAE82413F582E93400F583E5
:1055D300E0F5D988828983A3A882A9831AEA70E6B1
:1055E300900AE6E02407F5D9900AB6E0C4333354B1
:1055F300C04404F5D978B4790A88828983A3A3A324
:10560300E0F5D988828983A3A882A983E864BA7064
:1056130003E9640A70E3900AE6E0601F78B4790A4C
:10562300FAE82433F582E93400F583E0F5D988827A
:105633008983A3A882A9831AEA70E675E195900F7E
:10564300927403F0A37413F0A3744DF0A37414F0D5
:10565300A3744DF0A37414F0A3744DF0A37414F069
:10566300A3744DF0A37414F0A3744DF0A37414F059
:10567300A3740FF0A37413F0900FA0744DF0A374F0
:1056830014F0A3744DF0A37414F0A3744DF0A37439
:1056930014F0A3744DF0A37414F0A3744DF0A37429
:1056A30014F0A3744DF0A37414F0900AB4E0F8A3BB
:1056B300E0C8240EF582E83400F58374FFF0A3F00C
:1056C300A3F0A3F0900AB4E0F8A3E0C82414F58291
:1056D300E83400F5837415F090096E7403F00258F2
:1056E30044C082C083900AB4E0F8A3E0C82406F55E
:1056F30082E83400F583E4024F1374F71224169002
:10570300099CE0F875F003A4C8AAF02AF9749E284E
:10571300F8740939F9E82405FAE93400FB8A828B25
:1057230083E0FCA3E0FD88828983A3A3A3A3A3A3AF
:10573300A3A3A3ECF0A3EDF088828983A3A3A3A37F
:10574300A3A3A3E024FFF8A3E034FFF98A828B83A9
:10575300E8F0A3E9F002584474F7122416EAFEEBCA
:10576300FF9061D0E0600302583875D90E75D903F4
:1057730075D904EE248BF582EF3400F583E582249A
:1057830008F8E5833400F9E0F5D9A3E865827003EE
:10579300E9658370F2EE2483F582EF3400F583E547
:1057A300822404F8E5833400F9E0F5D9A3E865829F
:1057B3007003E9658370F275E1957908EE248BFA3D
:1057C300EF3400FB1213F97904EE2483FAEF34006B
:1057D300FB1213F97C00EEF8EFF9ECFAC3E49AFA42
:1057E30095E0FBEE2AFAEF3BFBEA248AF582EB34E1
:1057F30000F583E0C0E0E824AAF582E93400F583EC
:10580300D0E0F00C88828983A3A882A983ECC39497
:105813000840C7EE246FF582EF3400F583E0F8A368
:10582300E0F9EE2471F582EF3400F583E8F0A3E9A3
:10583300F07901800279008008F0EEA2E092AF795E
:10584300007F010224E8C082C08375D90275D903A1
:1058530075D90575E195EA246FF582EB3400F5837C
:10586300E0F8A3E0F9EA2471F582EB3400F583E86C
:10587300F0A3E9F07901024F1674F6122416EAFE3A
:10588300EBFF900B117406F075081175090B78087E
:105893001226297C01790312144174021223D5754F
:1058A300D90675D90375821175830BE0F5D9A3E584
:1058B3008264167004E583640B70F075E1959009BA
:1058C3006EE06408701EEE246FF582EF3400F583FA
:1058D300E0F8A3E0F9EE2471F582EF3400F583E8F4
:1058E300F0A3E9F07901025B4A74F6122416EAFE8A
:1058F300EBFF9061D0E070667801900B11740BF0B0
:1059030090096EE06407701975081175090B780822
:105913001226297C01790312144174021223D578CB
:1059230005740128F5D975D90375821175830BE8C0
:10593300FAE0F5D9A31AEA70F875E195EE246FF54C
:1059430082EF3400F583E0F8A3E0F9EE2471F582E9
:10595300EF3400F583E8F0A3E9F0790180027900E0
:10596300025B4A74F7122416EAFEEBFF75D903753E
:10597300D90375D90DEE24DDF582EF3400F583E00C
:10598300F5D975E195790412154FEE246FF582EF81
:105993003400F583E0F8A3E0F9EE2471F582EF34E7
:1059A30000F583E8F0A3E9F0790102584474F61294
:1059B3002416EAFEEBFF9061D0E0F87480C398FAF6
:1059C300EE2482F582EF3400F583E06004780480EE
:1059D300027800E8240BF8EAC3985003025A757D55
:1059E30009900B11EDF0EE24E2F8EF3400F97A128E
:1059F3007B0B7C0888828983E08A828B83F0888290
:105A03008983A3A882A9838A828B83A3AA82AB8377
:105A13001CEC70E0EE2482F582EF3400F583E06045
:105A23001D75081175090B78081226297C0979035D
:105A3300EEFAEFFB12144174021223D57D0D7401AB
:105A43002DF5D975D90375821175830B8D08E0F592
:105A5300D9A31508E50870F675E195790412154F79
:105A6300EE241DF582EF3400F583E4F0A3F0790111
:105A730080027900025B4A74F6122416EAFEEBFFF9
:105A83009061D0E0F87480C398FAEE2482F582EF37
:105A93003400F583E06004780480027800E8240889
:105AA300F8EAC3985003025B487806900B11740C14
:105AB300F090098BE0900B12F090098CE0900B139F
:105AC300F090098DE0900B14F090098EE0900B1587
:105AD300F090098FE0900B16F0EE2482F582EF34FC
:105AE30000F583E0601B75081175090B7808122611
:105AF300297C067903EEFA12144174021223D57835
:105B03000A740128F5D975D90375821175830B8839
:105B130008E0F5D9A31508E50870F675E195790451
:105B230012154FEE246FF582EF3400F583E0F8A3EE
